:100000000C948F000C94B7000C94B7000C94440926
:100010000C9468090C948C090C94B7000C94B700EC
:100020000C94B7000C94B7000C94B7000C94060520
:100030000C94B7000C94B7000C94B7000C94B70064
:100040000C94640A0C94B7000C94620C0C94A50CEC
:100050000C94B7000C94B7000C94B7000C94B70044
:100060000C94B7000C94B700084AD73B3BCE016E06
:1000700084BCBFFDC12F3D6C74319ABD56833DDAFF
:100080003D00C77F11BED9E4BB4C3E916BAAAABE0E
:10009000000000803F072C7AA5BA6CC590DA3B932C
:1000A00065FC8BBC53F810FD3C5692834DBD879D7B
:1000B0003AB63DCBC9BF5BBE73DA0FC93F00000043
:1000C0000700020100000304060000000000000019
:1000D00000010204081020408001020408102001E1
:1000E00002040810200404040404040404020202AC
:1000F000020202030303030303000000002300269F
:1001000000290000000000250028002B000000004E
:1001100000240027002A0000B900610DC40011244A
:100120001FBECFEFD8E0DEBFCDBF11E0A0E0B1E051
:10013000EEEAF5E202C005900D92A23DB107D9F7B3
:1001400013E0A2EDB1E001C01D92A835B107E1F7BF
:1001500011E0CCE1D1E004C02297FE010E94B71269
:10016000C831D107C9F70E94260F0C94CA120C940B
:1001700000008AEF91E00E94970120E047E066E0EE
:1001800082ED91E00C94FE0982ED91E00C945D0A01
:100190008EEA92E00E94CA0B181619066CF068E00D
:1001A00071E08EEA92E00E94590E6CE271E080E00C
:1001B00090E00E94D10AECCF0895EF92FF920F9346
:1001C0001F9340E855E260E070E08EEA92E00E9402
:1001D000E00C0E94C80068E271E08EEA92E00E94A2
:1001E000590E8AEF91E00E94B001E12CF12C00E061
:1001F00010E09801B901A8018AEF91E00E946F0315
:100200006DE371E08EEA92E00E94590E64EF71E0B6
:1002100080E090E00E94D10A67E471E08EEA92E00B
:100220001F910F91FF90EF900C94590E8EEA92E07F
:100230000E94CA0B892B09F477C08EEA92E00E94D3
:10024000F70B482F2091F4013091F501211531056C
:1002500029F481E090E04F3F49F40AC02130310594
:1002600061F48A3A19F482E090E002C080E090E004
:100270009093F5018093F40108952230310509F03F
:1002800053C0E091F201F091F3019F012F5F3F4FC6
:100290003093F3012093F201EE0FFF1FEA50FE4F5F
:1002A000992791838083223031050CF43DC0109250
:1002B000F5011092F4011092F3011092F2012091D5
:1002C000F6013091F7012F3F310571F18091F8016E
:1002D0009091F9018A3A910539F137FD33953093C0
:1002E000EF012093EE0197FD93959093F101809398
:1002F000F0016091F0017091F101882777FD809500
:10030000982F0E946D109B01AC016DE08AEF91E087
:100310000E94E5011092F7011092F6018FEF90E034
:100320009093F9018093F80108950C941601CF93EE
:10033000DF93EC010B960E944906CE0141960E9484
:100340004906CE0147960E944906198218821B82EF
:100350001A821D821C821F821E82DF91CF91089516
:10036000EF92FF920F931F93CF93DF93EC017C01E9
:100370008BE0E80EF11C2CEF38E04CEB52E06DE026
:1003800070E0C7010E9468068E010F5E1F4F2CEFC0
:1003900038E04CEB52E06AE070E0C8010E94680669
:1003A00061E082E00E945B0B1A86C7010E94E407AD
:1003B000C8010E94E407CE014796DF91CF911F91BB
:1003C0000F91FF90EF900C94E4078F929F92AF9261
:1003D000BF92CF92DF92EF92FF920F931F93CF9332
:1003E000DF93EC0149015A016A3039F06D3009F4AC
:1003F0007AC0683009F054C1EBC08C010F5E1F4F0A
:10040000C8010E9498077C016C0185E0C81AD108D8
:10041000D986C88620E030E040E251E4C501B4014D
:100420000E94CE0F87FD11C020E030E044EB52E483
:10043000C501B4010E945D1118166CF4812C912C39
:1004400044EBA42E42E4B42E06C0812C912C30E261
:10045000A32E31E4B32EB601882777FD8095982F1F
:100460000E946D10A50194010E94CE0F87FF1DC050
:10047000B70165507109882777FD8095982F0E94F4
:100480006D10A50194010E94CE0F87FF1BC1B7011B
:10049000C8010E9417076FE070E080E090E00E94C2
:1004A000D10A8FEFE81AF80AE3CFB7016550710956
:1004B000882777FD8095982F0E946D10A5019401E3
:1004C0000E945D1118160CF0FDC0B701C8010E9412
:1004D00017076FE070E080E090E00E94D10A81E0B1
:1004E000E81AF108E2CF6C018BE0C80ED11CC601FE
:1004F0000E9498078C017C018FE0E81AF108F986C8
:10050000E88620E030E048EC51E4C501B4010E94E7
:10051000CE0F87FD11C020E030E046E153E4C50175
:10052000B4010E945D1118166CF4812C912C26E107
:10053000A22E23E4B22E06C0812C912C98ECA92E79
:1005400091E4B92EB701882777FD8095982F0E94F6
:100550006D10A50194010E94CE0F87FF1CC0B80149
:100560006F507109882777FD8095982F0E946D1034
:10057000A50194010E94CE0F87FFA4C0B801C60157
:100580000E9417076FE070E080E090E00E94D10ABF
:100590000F5F1F4FE4CFB8016F507109882777FDB7
:1005A0008095982F0E946D10A50194010E945D1105
:1005B00018160CF087C0B801C6010E9417076FE03B
:1005C00070E080E090E00E94D10A01501109E3CF71
:1005D00020E030E0A901C501B4010E94CE0F87FDE3
:1005E00011C020E030E045E253E4C501B4010E94AF
:1005F0005D11181654F4812C912C85E2A82E83E409
:10060000B82E03C0812C912C54017E0187E1E80EA5
:10061000F11CC7010E9498078C0199878887BC014B
:10062000882777FD8095982F0E946D10A501940171
:100630000E94CE0F87FF1AC0B801882777FD8095EA
:10064000982F0E946D10A50194010E94CE0F87FF84
:1006500039C0B801C7010E9417076FE070E080E061
:1006600090E00E94D10A0F5F1F4FE6CFB8018827A4
:1006700077FD8095982F0E946D10A50194010E942E
:100680005D111816FCF4B801C7010E9417076FE04E
:1006900070E080E090E00E94D10A01501109E6CF9D
:1006A0006BE771E08EEA92E0DF91CF911F910F919D
:1006B000FF90EF90DF90CF90BF90AF909F908F9082
:1006C0000C94590EDF91CF911F910F91FF90EF90F5
:1006D000DF90CF90BF90AF909F908F9008952F9212
:1006E0003F924F925F926F927F928F929F92AF92C2
:1006F000BF92CF92DF92EF92FF920F931F93CF930F
:10070000DF9300D000D000D0CDB7DEB79E838D83BD
:100710002A013B0148015901002711270E191F0921
:1007200020E030E0A901C301B2010E94CE0F87FD95
:1007300015C020E030E042E553E4C301B2010E945D
:100740005D11181694F020E030E04CE552E4C3014E
:10075000B2010E94420F2B013C010EC0412C512CD2
:100760009CE5692E92E4792E07C0412C80E8582E32
:1007700084E8682E83E4782E20E030E044E353ECF4
:10078000C501B4010E94CE0F87FD11C020E030E00A
:1007900046E153E4C501B4010E945D1118166CF4E2
:1007A000812C912CB6E1AB2EB3E4BB2E06C0812C7C
:1007B000912CA4E3AA2EA3ECBA2E063A4FEF14070D
:1007C00044F00B35110514F00AE510E0065A1F4FEE
:1007D00002C000E010E0A3019201C301B2010E9437
:1007E00068116B017C01A5019401C501B4010E944F
:1007F00068119B01AC01C701B6010E94420F6B0159
:100800007C0120E030E949E357E40E94410F20E0F9
:1008100030E049E357E40E94D20F0E94330F69830E
:100820007A838B839C83A3019201C501B4010E944A
:10083000D20F0E94A60F21EE3EE245E652E40E944E
:1008400068112B013C01C701B6010E94CF114B0179
:100850005C0120E030E24BEA56E4C701B6010E9499
:10086000420F20E030E048EC56E40E94410F6B015B
:100870007C0120E030E044E953E4C501B4010E946A
:1008800068119B01AC01C701B6010E94D20F0E9402
:10089000330F21EE3EE245E652E40E9468116B01FF
:1008A0007C019B01AC01C301B2010E94420F0E9476
:1008B0003A104B015C0121EE3EE245E652E46981CB
:1008C0007A818B819C810E946811A30192010E9410
:1008D000410FA70196010E94410F0E943A109B010F
:1008E000EAE08E16910444F0FBE58F1691043CF08B
:1008F000FAE58F2E912C03C0EAE08E2E912C29313F
:10090000310534F0673971052CF066E970E002C0FA
:1009100069E170E0C4018A5591097B016817790784
:100920000CF47C014FE0841691043CF486E4E81654
:10093000F1041CF456E4E52EF12CB701882777FD6D
:100940008095982F0E946D109B01AC016DE08D8108
:100950009E810E94E501B401882777FD8095982F3C
:100960000E946D109B01AC016AE08D819E810E9406
:10097000E501B801882777FD8095982F0E946D10BA
:100980009B01AC0168E08D819E810E94E50164E9D4
:1009900071E08EEA92E00E943C0E4AE050E0B40121
:1009A0008EEA92E00E940E0F6DE971E08EEA92E00D
:1009B0000E943C0E4AE050E0B7018EEA92E00E94AD
:1009C0000E0F66EA71E08EEA92E00E943C0E4AE069
:1009D00050E0B8018EEA92E026960FB6F894DEBF9A
:1009E0000FBECDBFDF91CF911F910F91FF90EF9080
:1009F000DF90CF90BF90AF909F908F907F906F903F
:100A00005F904F903F902F900C940E0F1F920F927B
:100A10000FB60F9211242F933F934F935F936F93D1
:100A20007F938F939F93AF93BF93CF93DF93EF9376
:100A3000FF938091180287FF05C0109285001092E5
:100A4000840016C020911802332727FD309580912D
:100A5000170290E0281739075CF43091180226E05D
:100A60003203D0011124A75EBD4F8C9186FD15C0C5
:100A7000809118028F5F809318022091180233270B
:100A800027FD30958091170290E02817390794F4DC
:100A9000809118028C302CF10DC030911802320375
:100AA000F0011124E75EFD4F808160E08F730E94AA
:100AB000940BDECF809184009091850084349C4912
:100AC00018F480E49CE905C0809184009091850031
:100AD000049690938900809388008FEF809318028A
:100AE000C5C03091180226E03203F0011124E75E00
:100AF000FD4F8581882309F48DC040911802309103
:100B000018024203D0011124A75EBD4F3203F00149
:100B10001124E75EFD4F13964D915C9114978181EE
:100B20009281309118028417950768F54091180258
:100B30004203F0011124E75EFD4F3203D00111247E
:100B4000A75EBD4F15963C9181819281830F911DC7
:100B50009283818340911802309118024203E00190
:100B60001124C75EDD4F3203D0011124A75EBD4FB3
:100B70004B815C8111968D919C91129784179507FA
:100B800008F448C02BC0409118024203F001112420
:100B9000E75EFD4F3203D0011124A75EBD4F1596CD
:100BA0003C9181819281831B910992838183409141
:100BB0001802309118024203E0011124C75EDD4F94
:100BC0003203D0011124A75EBD4F4B815C81119689
:100BD0008D919C91129748175907E0F030911802B7
:100BE000409118024203E0011124C75EDD4F8B8162
:100BF0009C813203D0011124A75EBD4F12969C93B5
:100C00008E931197309118023203F0011124E75EA0
:100C1000FD4F1582809184009091850020911802EB
:100C200046E02403D0011124A75EBD4F11962D91FB
:100C30003C911297820F931F9093890080938800B4
:100C4000209118022403D0011124A75EBD4F8C917E
:100C500086FF0CC0209118022403F0011124E75EE6
:100C6000FD4F808161E08F730E94940BFF91EF91A3
:100C7000DF91CF91BF91AF919F918F917F916F91B4
:100C80005F914F913F912F910F900FBE0F901F904A
:100C90001895FC01A0911702AC30B8F481E08A0FDE
:100CA00080931702A08386E0A89FD0011124A75E3D
:100CB000BD4F88EB9BE012969C938E931197158203
:100CC00084E091E09483838308958FEF8083089577
:100CD000DF92EF92FF920F931F93CF93DF93EC017C
:100CE000D62E7A01890188818C3008F062C061E0DB
:100CF0008D2D0E945B0B888196E0899FF001112465
:100D0000E75EFD4F2D2D2F739081907C922B908369
:100D10006CEB72E06E197F0977FF02C06D5F7F4F49
:100D2000759567957595679569834CEF58E0401BFD
:100D3000510B57FF02C04D5F5F4F55954795559535
:100D400047954A836CE00E9435129CE0899FA00180
:100D5000112420E030E096E0B901640F751F969FE2
:100D6000F001979FF00D1124E75EFD4F608166FD55
:100D700016C02F5F3F4F2C30310571F781110FC026
:100D80001092800082E08093810010928500109282
:100D90008400B19A80916F00826080936F00E88137
:100DA00086E0E89FF0011124E75EFD4F80818064BA
:100DB00080838881DF91CF911F910F91FF90EF90F9
:100DC000DF900895DC01EC91EC3080F511968C9168
:100DD00011972FEA30E0281B310987FD3395220F48
:100DE000331F220F331F6217730784F012968C9102
:100DF0002FE332E0281B310987FD3395220F331F83
:100E0000220F331F621773070CF49B018FB7F894FE
:100E100096E0E99FF0011124E75EFD4F2250310971
:100E2000220F331F328321838FBF158208954F9283
:100E30005F926F927F92AF92BF92CF92DF92EF92CA
:100E4000FF920F931F93CF93DF93EC016C3B82E0F3
:100E500078070CF041C0653B710514F064EB70E05D
:100E600089812FEA30E0281B310987FD3395220F55
:100E7000331F220F331F5901CC24B7FCC094DC2C44
:100E80002B0177FF02C0412C512CB201882777FD3E
:100E90008095982F2A814FE352E0421B510927FD8C
:100EA0005395440F551F440F551F2A01662457FCC4
:100EB0006094762C7F926F925F924F9214EBE12EAA
:100EC000F12C00E010E020E030E0A9010E94B70D15
:100ED0000F900F900F900F90CE01DF91CF911F9147
:100EE0000F91FF90EF90DF90CF90BF90AF907F90E9
:100EF0006F905F904F900C94E206DC01EC91EF3F15
:100F0000A1F0B6E0EB9FF0011124E75EFD4F818177
:100F1000928163E0880F991F6A95E1F774E09695D6
:100F200087957A95E1F70296089580E090E008951C
:100F3000AF92BF92CF92DF92EF92FF920F931F93E7
:100F4000CF93DF93EC010E947D072A814FE352E0AB
:100F5000421B510927FD5395440F551F440F551F40
:100F60007A010027F7FC0095102F49812FEA30E025
:100F7000241B310947FD3395220F331F220F331FE6
:100F8000442737FD4095542F0196BC01882777FDF3
:100F90008095982F1F921F921F92E4EBEF93A12C44
:100FA000B12C65010E94B70D0F900F900F900F901C
:100FB000CB01DF91CF911F910F91FF90EF90DF90C8
:100FC000CF90BF90AF900895CF93DF93EC010E9434
:100FD0009807BC01CE01DF91CF910C9417072091A7
:100FE000A3023091A40228173907B9F49091610245
:100FF00080916202981789F0E0916102F0E0ED596A
:10100000FD4F80812091610230E02F5F3F4F2F73B1
:1010100033272093610290E008958FEF9FEF0895AA
:101020002091A3023091A4022817390781F49091EE
:10103000610280916202981751F0E0916102F0E044
:10104000ED59FD4F8081992787FD909508958FEF89
:101050009FEF08952091A3023091A4022817390729
:1010600071F4809162022091610290E0805C9F4F58
:10107000821B910960E470E00E944112089580E0B3
:1010800090E008952091A3023091A4022817390717
:1010900039F48FB7F89410926202109261028FBFF8
:1010A0000895DC015196ED91FC9152972081509664
:1010B0008C91809582238083089520E001972FEF03
:1010C0008F3F9207D9F70895EF92FF920F931F93E6
:1010D000CF93DF93EC018B8DEE85FF859D8581FF9E
:1010E00004C08081892329F447C08081892309F0C5
:1010F00043C08B899C890E945D0808E010E0EE24C3
:10110000E394F12C8D899E890E945D08EE85FF8510
:1011100080819D85892311F0FE2803C08E2D809546
:10112000F822EE0C015011090115110559F78F89AC
:10113000988D0E945D088B8D81FDF09480916202F4
:101140002091610290E001968F73992730E0821719
:10115000930779F0E0916202F0E0ED59FD4FF082E3
:101160008091620290E001968F73992780936202CA
:1011700003C08B8D81608B8FDF91CF911F910F9179
:10118000FF90EF900895611102C00C945108DC01AA
:101190005196ED91FC915297208150968C91282B7D
:1011A00020830895DF92EF92FF920F931F93CF93C6
:1011B000DF93EC01E62E898D9A8D892B39F481E03D
:1011C00090E09B838A8380E090E04DC0DFB6F89486
:1011D0006B8D66956170CE010E94C308898D9A8DD2
:1011E00005960E945D088B8D08E010E0FF24F394C3
:1011F00081FF19C08F2D8E2121F0CE010E94510850
:1012000004C061E0CE010E94C308898D9A8D0E94BE
:101210005D08FF0C015011090115110559F7CE01A8
:101220000E94510819C08F2D8E2129F061E0CE0156
:101230000E94C30803C0CE010E945108898D9A8D77
:101240000E945D08FF0C015011090115110559F7A5
:1012500061E0CE010E94C308DFBE898D9A8D0E9495
:101260005D0881E090E0DF91CF911F910F91FF9099
:10127000EF90DF9008958091A3029091A4020097CF
:1012800011F00C94640808951F920F920FB60F92FC
:1012900011242F933F934F935F936F937F938F937B
:1012A0009F93AF93BF93EF93FF930E943B09FF91EE
:1012B000EF91BF91AF919F918F917F916F915F91CE
:1012C0004F913F912F910F900FBE0F901F90189547
:1012D0001F920F920FB60F9211242F933F934F93AB
:1012E0005F936F937F938F939F93AF93BF93EF938E
:1012F000FF930E943B09FF91EF91BF91AF919F91A6
:101300008F917F916F915F914F913F912F910F90AE
:101310000FBE0F901F9018951F920F920FB60F924D
:1013200011242F933F934F935F936F937F938F93EA
:101330009F93AF93BF93EF93FF930E943B09FF915D
:10134000EF91BF91AF919F918F917F916F915F913D
:101350004F913F912F910F900FBE0F901F901895B6
:101360001F93CF93DF93EC01162F61E0812F0E9432
:101370005B0B61E0812F0E94940B812F90E0FC01B8
:10138000EF52FF4FE491E88BFC01EB51FF4FE491EA
:10139000F0E0EE0FFF1FED5FFE4F859194919A8B69
:1013A000898BDF91CF911F9108951F93CF93DF9386
:1013B000EC01162F60E0812F0E945B0B8B8D81FD6D
:1013C00004C061E0812F0E94940B1C87812F90E064
:1013D000FC01EF52FF4FE491ED87FC01EB51FF4F11
:1013E000E491F0E0EE0FFF1FE750FF4F85919491DD
:1013F0009F878E87DF91CF911F910895FF920F9362
:101400001F93CF93DF93EC01F62E522F1B821A828B
:1014100008EE13E020E030E00C831D832E833F8331
:1014200085EB91E0998388831C8A1B8A1E8A1D8A1A
:10143000188E1F8A1A8E198E8B8D8E7F50FB81F924
:101440008B8F642FCE010E94B0096F2DCE01DF91EA
:10145000CF911F910F91FF900C94D509FC01448509
:10146000463150F5483028F04E3030F4EBE6F0E0ED
:1014700005C0EDE6F0E002C0ECE6F0E05081483057
:1014800040F481E090E0042E01C0880F0A94EAF74E
:1014900010C0242F30E04E3018F42850310902C01B
:1014A0002E50310981E090E0022E01C0880F0A948D
:1014B000EAF7809585238083089525EB31E0FC01D0
:1014C000318320830C942E0A1F920F920FB60F9235
:1014D00011242F933F938F939F93AF93BF9380914A
:1014E000A6029091A702A091A802B091A902309102
:1014F000A50223E0230F2D3720F40196A11DB11D75
:1015000005C026E8230F0296A11DB11D2093A50258
:101510008093A6029093A702A093A802B093A90279
:101520008091AA029091AB02A091AC02B091AD0261
:101530000196A11DB11D8093AA029093AB02A093C6
:10154000AC02B093AD02BF91AF919F918F913F914B
:101550002F910F900FBE0F901F9018953FB7F894E2
:101560008091AA029091AB02A091AC02B091AD0221
:1015700026B5A89B05C02F3F19F00196A11DB11DEE
:101580003FBF6627782F892F9A2F620F711D811D0B
:10159000911D42E0660F771F881F991F4A95D1F76A
:1015A0000895CF92DF92EF92FF92CF93DF936B017A
:1015B0007C010E94AE0AEB01C114D104E104F104E4
:1015C00079F00E94AE0A6C1B7D0B683E7340A0F35D
:1015D00081E0C81AD108E108F108C851DC4FECCF0E
:1015E000DF91CF91FF90EF90DF90CF9008957894A6
:1015F00084B5826084BD84B5816084BD85B5826018
:1016000085BD85B5816085BDEEE6F0E080818160B5
:101610008083E1E8F0E010828081826080838081B5
:1016200081608083E0E8F0E0808181608083E1EB8D
:10163000F0E0808184608083E0EBF0E08081816075
:101640008083EAE7F0E0808184608083808182602B
:101650008083808181608083808180688083109214
:10166000C1000895833081F028F4813099F08230F0
:10167000A1F008958630A9F08730B9F08430D1F414
:10168000809180008F7D03C0809180008F77809350
:101690008000089584B58F7702C084B58F7D84BDA6
:1016A00008958091B0008F7703C08091B0008F7D46
:1016B0008093B0000895CF93DF9390E0FC01EF5248
:1016C000FF4F2491FC01EB51FF4F8491882349F196
:1016D00090E0880F991FFC01E35FFE4FA591B49144
:1016E0008D5F9E4FFC01C591D4919FB7611108C0D9
:1016F000F8948C91209582238C93888182230AC050
:10170000623051F4F8948C91322F309583238C936E
:101710008881822B888304C0F8948C91822B8C93CF
:101720009FBFDF91CF9108950F931F93CF93DF93C6
:101730001F92CDB7DEB7282F30E0F901E354FF4FF9
:101740008491F901EF52FF4F1491F901EB51FF4FD2
:1017500004910023C9F0882321F069830E94320B91
:101760006981E02FF0E0EE0FFF1FED5FFE4FA591C6
:10177000B4919FB7F8948C91611103C010958123A7
:1017800001C0812B8C939FBF0F90DF91CF911F9150
:101790000F910895FC0124853585F901E05CFF4F28
:1017A00080819181F901EE5BFF4F20813181821BA5
:1017B000930B8F7399270895FC0184859585FC010F
:1017C000E05CFF4F40815181FC01EE5BFF4F2081C7
:1017D00031814217530741F00190F081E02DE80F6D
:1017E000F91F808190E008958FEF9FEF0895FC012D
:1017F00084859585FC01E05CFF4F40815181FC01AF
:10180000EE5BFF4F208131814217530779F0A081B1
:10181000B181A80FB91F8C91208131812F5F3F4F7B
:101820002F7333273183208390E008958FEF9FEF4C
:101830000895FC0181A1882329F0A489B5898C91A0
:1018400086FFFBCF11A20895CF93DF93FC0126857D
:101850003785D901A05CBF4F8D919C91119701965E
:101860008F739927E901CE5BDF4F48815981841737
:101870009507D9F30D90BC91A02DA20FB31F6C93C7
:10188000A685B785A05CBF4F11969C938E93A689C1
:10189000B7892C9181E090E0078C02C0880F991FD6
:1018A0000A94E2F7282B2C9381E081A30488F58920
:1018B000E02D80818064808381E090E0DF91CF9192
:1018C000089508951F920F920FB60F9211242F932F
:1018D0003F934F938F939F93EF93FF938091C0001B
:1018E00082FD1CC04091C600809154039091550325
:1018F00001968F73992720915603309157038217D1
:10190000930771F0E0915403F0915503EC5EFC4FA6
:101910004083909355038093540302C08091C60086
:10192000FF91EF919F918F914F913F912F910F9048
:101930000FBE0F901F9018958EEA92E00E94CA0B7E
:10194000892B11F00C94610C08951F920F920FB621
:101950000F9211242F933F938F939F93EF93FF93B5
:101960002091100330911103809112039091130381
:101970002817390731F48091C1008F7D8093C10011
:1019800014C0E0911203F0911303E053FD4F208146
:10199000809112039091130301968F73992790936E
:1019A0001303809312032093C600FF91EF919F9140
:1019B0008F913F912F910F900FBE0F901F90189510
:1019C000CF92DF92EF92FF92CF93DF93EC016A0107
:1019D0007B01411581EE580761057105F9F0EC892D
:1019E000FD8981E090E008A002C0880F991F0A9449
:1019F000E2F7808360E079E08DE390E0A701960153
:101A00000E945512215031094109510956954795B7
:101A100037952795211580E1380798F0EC89FD89E5
:101A2000108260E874E88EE190E0A70196010E94C0
:101A3000551221503109410951095695479537955D
:101A40002795E889F9893083EA89FB89208319A2DF
:101A5000EE89FF89408181E090E09C010C8C02C0FE
:101A6000220F331F0A94E2F7422B4083EE89FF894D
:101A700040819C010D8C02C0220F331F0A94E2F7B3
:101A8000422B4083EE89FF8940819C010E8C02C06D
:101A9000220F331F0A94E2F7422B4083EE89FF891D
:101AA00020810F8C02C0880F991F0A94E2F780955D
:101AB00082238083DF91CF91FF90EF90DF90CF90D2
:101AC00008951092B1021092B00288EE93E0A0E067
:101AD000B0E08093B2029093B302A093B402B093AB
:101AE000B50285EC91E09093AF028093AE0284E161
:101AF00093E09093BB028093BA0280ED92E09093C2
:101B0000BD028093BC0285EC90E09093BF0280936D
:101B1000BE0284EC90E09093C1028093C00280ECFE
:101B200090E09093C3028093C20281EC90E0909386
:101B3000C5028093C40282EC90E09093C702809328
:101B4000C60286EC90E09093C9028093C80284E0BC
:101B50008093CA0283E08093CB0287E08093CC021B
:101B600085E08093CD0281E08093CE0208954F926C
:101B70005F926F927F92AF92BF92CF92DF92EF927D
:101B8000FF920F931F93CF93DF93CDB7DEB7290159
:101B90003A01621B730B840B950B29893A894B8997
:101BA0005C892A193B094C095D09298B3A8B4B8BBF
:101BB0005C8B9B01AC0169897A898B899C890E9425
:101BC0002512E418F50806091709A80197010E94D3
:101BD00077122A0D3B1D4C1D5D1DCA01B901DF9115
:101BE000CF911F910F91FF90EF90DF90CF90BF901A
:101BF000AF907F906F905F904F900895CF92DF925B
:101C0000EF92FF920F931F93CF93DF936C017A01B2
:101C1000EB01E60EF71E00E010E0CE15DF0561F0E7
:101C20006991D601ED91FC910190F081E02DC60102
:101C30000995080F191FF1CFC801DF91CF911F91AE
:101C40000F91FF90EF90DF90CF900895611571058F
:101C500081F0DB010D900020E9F7AD014150510901
:101C6000461B570BDC01ED91FC910280F381E02DC6
:101C7000099480E090E008950C94260EDC01ED912B
:101C8000FC910190F081E02D09940F931F93CF9365
:101C9000DF93EC016DE00E943E0E8C016AE0CE0104
:101CA0000E943E0E800F911FDF91CF911F910F91E7
:101CB00008950F931F93CF93DF93EC010E94260E9C
:101CC0008C01CE010E94450E800F911FDF91CF91B4
:101CD0001F910F9108958F929F92AF92BF92CF92D2
:101CE000DF92EF92FF920F931F93CF93DF93CDB7C5
:101CF000DEB7A1970FB6F894DEBF0FBECDBF7C0153
:101D0000C42EE52FCB01D22E19A221E02D1510F003
:101D10002AE0D22E8E010F5D1F4F8D2C912CA12C0D
:101D2000B12C6C2D7E2FA50194010E9455128C2D93
:101D3000D29E80191124015011098A3014F4805D5B
:101D400001C0895CF80180832115310541055105E9
:101D500021F0C22EE32FCA01E4CFB801C7010E94CF
:101D6000260EA1960FB6F894DEBF0FBECDBFDF9151
:101D7000CF911F910F91FF90EF90DF90CF90BF9088
:101D8000AF909F908F900895CF92DF92EF92FF9245
:101D90000F931F93CF93DF93EC016A017B01211511
:101DA000310579F4E881F9810190F081E02D642F0B
:101DB000DF91CF911F910F91FF90EF90DF90CF9027
:101DC00009942A303105E9F477FF1AC06DE20E94C8
:101DD0003E0E8C0144275527BA014C195D096E0946
:101DE0007F092AE0CE010E946B0E800F911FDF91C8
:101DF000CF911F910F91FF90EF90DF90CF900895BA
:101E00002AE0B701A601CE01DF91CF911F910F917A
:101E1000FF90EF90DF90CF900C946B0E0F931F9379
:101E2000CF93DF93EC019A01AB01662757FD6095D4
:101E3000762F0E94C40E8C01CE010E94450E800FA9
:101E4000911FDF91CF911F910F9108950E94F70A82
:101E50000E94DD00CCE9DCE00E9495012097E1F3CF
:101E60000E949C0CF9CF9F939F7772D10F90002016
:101E70003AF49058A2EA2AED3FE049E450E413D046
:101E8000E2C15058BB27AA270ED0DDC1CED130F019
:101E9000D3D120F031F49F3F11F41EF49EC10EF413
:101EA000E095E7FB94C1E92FDFD180F3BA17620711
:101EB00073078407950718F071F49EF5F7C10EF4C7
:101EC000E0950B2EBA2FA02D0B01B90190010C014A
:101ED000CA01A0011124FF27591B99F0593F50F462
:101EE000503E68F11A16F040A22F232F342F4427BA
:101EF000585FF3CF469537952795A795F0405395B2
:101F0000C9F77EF41F16BA0B620B730B840BBAF081
:101F10009150A1F0FF0FBB1F661F771F881FC2F7EC
:101F20000EC0BA0F621F731F841F48F48795779500
:101F30006795B795F7959E3F08F0B3CF9395880FB7
:101F400008F09927EE0F979587950895DF93DD2781
:101F5000B92FBF7740E85FE31616170648075B07FF
:101F600010F4D92FAED19F938F937F936F9355D257
:101F7000E8E6F0E035D167D12F913F914F915F9125
:101F8000B3D1DD2349F09058A2EA2AED3FE049ECB5
:101F90005FE3D0785D2787DFDF9155C1F4D008F487
:101FA00081E008950CD04FC147D140F03ED130F0D0
:101FB00021F45F3F19F00BC1511179C10EC154D109
:101FC00098F39923C9F35523B1F3951B550BBB2700
:101FD000AA2762177307840738F09F5F5F4F220FAD
:101FE000331F441FAA1FA9F333D00E2E3AF0E0E8A6
:101FF00030D091505040E695001CCAF729D0FE2FF2
:1020000027D0660F771F881FBB1F26173707480783
:10201000AB07B0E809F0BB0B802DBF01FF27935839
:102020005F4F2AF09E3F510568F0D1C040C15F3F2D
:10203000ECF3983EDCF3869577956795B795F79521
:102040009F5FC9F7880F911D9695879597F9089519
:10205000E1E0660F771F881FBB1F621773078407B5
:10206000BA0720F0621B730B840BBA0BEE1F88F7C4
:10207000E095089504D06894B11119C10895FCD079
:1020800088F09F5790F0B92F9927B751A0F0D1F061
:10209000660F771F881F991F1AF0BA95C9F712C0EB
:1020A000B13081F003D1B1E0089500C1672F782FDE
:1020B0008827B85F39F0B93FCCF386957795679557
:1020C000B395D9F73EF490958095709561957F4FC3
:1020D0008F4F9F4F0895E89409C097FB3EF4909569
:1020E0008095709561957F4F8F4F9F4F9923A9F0F1
:1020F000F92F96E9BB279395F69587957795679580
:10210000B795F111F8CFFAF4BB0F11F460FF1BC0C3
:102110006F5F7F4F8F4F9F4F16C0882311F096E956
:1021200011C0772321F09EE8872F762F05C0662304
:1021300071F096E8862F70E060E02AF09A95660FBD
:10214000771F881FDAF7880F9695879597F9089576
:10215000DF93CF931F930F938B01EC01E5E9F0E040
:102160003FD071D09801AE018B01EC0160E070E0CE
:1021700080E89FE386DE13D19801AE010F911F9195
:10218000CF91DF91B1C0990F0008550FAA0BE0E87D
:10219000FEEF16161706E807F907C0F01216130629
:1021A000E407F50798F0621B730B840B950B39F469
:1021B0000A2661F0232B242B252B21F408950A26CF
:1021C00009F4A140A6958FEF811D811D089597F90F
:1021D0009F6780E870E060E008959FEF80EC0895CD
:1021E000DF93CF931F930F93FF92EF92DF927B01C8
:1021F0008C01689405C0DA2EEF0176D0FE01E894D8
:10220000A5912591359145915591AEF3EF014BDEA6
:10221000FE019701A801DA9479F7DF90EF90FF9023
:102220000F911F91CF91DF91089500240A94161603
:10223000170618060906089500240A9412161306B4
:10224000140605060895092E0394000C11F4882342
:1022500052F0BB0F40F4BF2B11F460FF04C06F5F5E
:102260007F4F8F4F9F4F089557FD9058440F551F34
:1022700059F05F3F71F04795880F97FB991F61F008
:102280009F3F79F087950895121613061406551F7F
:10229000F2CF4695F1DF08C0161617061806991FEB
:1022A000F1CF86957105610508940895E894BB27E0
:1022B00066277727CB0197F9089565DF08F48FEF3C
:1022C00008959B01AC0160E070E080E89FE36ACE76
:1022D0000BD0B9CFAADF28F0AFDF18F0952309F0B3
:1022E00076CF7BCF1124E3CFBFDFA0F3959FD1F34F
:1022F000950F50E0551F629FF001729FBB27F00DB4
:10230000B11D639FAA27F00DB11DAA1F649F662708
:10231000B00DA11D661F829F2227B00DA11D621F57
:10232000739FB00DA11D621F839FA00D611D221F11
:10233000749F3327A00D611D231F849F600D211DF5
:10234000822F762F6A2F11249F5750408AF0E1F098
:1023500088234AF0EE0FFF1FBB1F661F771F881FE1
:1023600091505040A9F79E3F510570F030CF9FCF5C
:102370005F3FECF3983EDCF3869577956795B795CC
:10238000F795E7959F5FC1F7FE2B880F911D9695F6
:10239000879597F9089511F40EF41FCF41C06CDFB3
:1023A000D0F39923D9F3CEF39F57550B87FF46D02F
:1023B0000024A0E640EA900180585695979528F4AD
:1023C000805C660F771F881F20F0261737074807A5
:1023D00030F4621B730B840B202931294A2BA695FC
:1023E00017940794202531254A2758F7660F771F41
:1023F000881F20F026173707480730F4620B730B4D
:10240000840B200D311D411DA09581F7B901842F4A
:102410009158880F9695879508959B01AC0158CFE8
:102420009F3F31F0915020F4879577956795B79548
:10243000880F911D9695879597F908959150504072
:10244000660F771F881FD2F70895DB018F939F9344
:102450000E949612BF91AF91A29F800D911DA39FE4
:10246000900DB29F900D11240895991B79E004C03E
:10247000991F961708F0961B881F7A95C9F78095C3
:10248000089597FB072E16F4009407D077FD09D026
:102490000E94A11207FC05D03EF4909581959F4FB4
:1024A0000895709561957F4F0895A1E21A2EAA1B99
:1024B000BB1BFD010DC0AA1FBB1FEE1FFF1FA217F4
:1024C000B307E407F50720F0A21BB30BE40BF50BF1
:1024D000661F771F881F991F1A9469F7609570957A
:1024E000809590959B01AC01BD01CF010895052E0B
:1024F00097FB1EF400940E948E1257FD07D00E9495
:10250000551207FC03D04EF40C948E125095409552
:10251000309521953F4F4F4F5F4F0895909580958F
:10252000709561957F4F8F4F9F4F08950E94BB120A
:10253000A59F900DB49F900DA49F800D911D112417
:102540000895AA1BBB1B51E107C0AA1FBB1FA617FA
:10255000B70710F0A61BB70B881F991F5A95A9F74C
:1025600080959095BC01CD010895EE0FFF1F059059
:10257000F491E02D0994A29FB001B39FC001A39FE5
:10258000700D811D1124911DB29F700D811D1124AC
:10259000911D089511E0CCE1D1E004C0FE010E943C
:0E25A000B7122296CE31D107C9F7F894FFCFBB
:1025AE000100000000642D6477616974696E672014
:1025BE00666F722070726F63657373696E672074D5
:1025CE006F20737461727400696E697469617469E5
:1025DE006E6720736572766F732E2E2E00696E698C
:1025EE00746961746564005265616479004D616758
:1025FE006E6574204F4646004D61676E6574204FC0
:10260E004E0063757272656E7420706F73697469B3
:10261E006F6E3A2028002C200029006E6F20736503
:10262E0072766F20776974682074686973206E61A2
:10263E006D652E00616E676C654C3D2000616E67A6
:10264E006C65523D2000616E676C65526F743D2063
:10265E000000000000D208FE0D2A08EF0710084205
:10266E000800000000240CFE0DCA0BF70BDC0B1942
:02267E000C004E
:00000001FF
